:100E42000A128A11242F0313831606148614061518
:100E520086150616071087100711871107128712C9
:100E620007138312060806081039A100A10CA10C71
:100E7200A10CA10CA10921080139A1000608083919
:100E8200A200A20CA20CA20CA20922080139A20003
:100E920006080439A300A30CA30CA30923080139F3
:100EA200A30006080239A400A40CA40924080139ED
:100EB200A40006080139A500A50925080139A500E5
:100EC20006081039B100B10CB10CB10CB10C3108EB
:100ED200B10006080839B200B20CB20CB20C3208EA
:100EE200B20006080439B300B30CB30C3308B300E4
:100EF20006080239B400B40C3408B40006080139FB
:100F0200B50023083505C00023083405C1002208B6
:100F12003305C200400841044204C30032082305DD
:100F2200C40031082205C50033082405C600440860
:100F320045044604C80031082305C90022082305D8
:100F420024052505D00049085004D10023083505A1
:100F5200D3002108220523052405D4005308540494
:100F6200D50021083205D60031082305D7005608DE
:100F72005704D80031083305D9002108220523057A
:100F820024052505E00059086004E1002308350521
:100F9200E20034082505E30062086304E40048081F
:100FA200C80D4808E5005108D10DD10D5108E600E1
:100FB2005508D50DD50DD50D5508E7005808D80DA3
:100FC200D80DD80DD80D5808E8006408E40DE40DDA
:100FD200E40DE40DE40D6408E9006108E10DE10DA2
:100FE200E10DE10DE10DE10D6108F000430865043A
:0E0FF200660467046804690470048700342FE5
:02400E00313F40
:00000001FF
